{
  "blockHash": "0x7da982d280f452dad6ede5c12df3c36fb55b8add01435505a47b4dcc5d6b863e",
  "blockNumber": 1621,
  "creates": null,
  "from": "0x4e662ae2dccc0e27bc7c9a7c34963f70f2200a2d",
  "gas": 940000,
  "gasPrice": "19977478963",
  "hash": "0x29e67e9e602ab6e11ba655d6d101f7bce9af16cfe0c34e7f813e8ac1f9f9f0d1",
  "input": "0x93e84cd9",
  "nonce": 1048609,
  "raw": "0xf86c831000218504a6c02333830e57e094d2541d0287d8186abf2ee201947580acaf67be91018493e84cd91ba04a831bd43a744899a87674bc8ebef833c8a4bc53d558098e4f01356f64bf6c8aa068b11abad66abe252ed4758dec5dc1c23bed08d5e9eaede4d76bdf921dbe331d",
  "to": "0xd2541d0287d8186abf2ee201947580acaf67be91",
  "transactionIndex": 0,
  "value": "1"
}
